:020000020000FC
:100000000C94020008E00EBF0FEF0DBF02E000935A
:10001000690001E00DBB789400E00093C00008E0A7
:100020000093C10006E00093C20007E60093C400FD
:1000300000E00093C5000895009104010436E1F743
:10004000E0910101E395E0930101F6CFAA1BBB1BF0
:1000500051E107C0AA1FBB1FA617B70710F0A61BC8
:10006000B70B881F991F5A95A9F780959095089509
:10007000991B79E004C0991F961708F0961B881FFA
:100080007A95C9F78095089500E3400F0091C0006C
:0A00900005FFFCCF4093C600089561
:00000001FF
